{
  "_format": "hh-sol-artifact-1",
  "contractName": "Raffle",
  "sourceName": "contracts/Raffle.sol",
  "abi": [
    {
      "inputs": [],
      "stateMutability": "nonpayable",
      "type": "constructor"
    },
    {
      "anonymous": false,
      "inputs": [
        {
          "indexed": true,
          "internalType": "address",
          "name": "buyer",
          "type": "address"
        }
      ],
      "name": "TicketPurchased",
      "type": "event"
    },
    {
      "anonymous": false,
      "inputs": [
        {
          "indexed": true,
          "internalType": "address",
          "name": "winner",
          "type": "address"
        },
        {
          "indexed": false,
          "internalType": "uint256",
          "name": "prizeAmount",
          "type": "uint256"
        }
      ],
      "name": "WinnerSelected",
      "type": "event"
    },
    {
      "inputs": [],
      "name": "admin",
      "outputs": [
        {
          "internalType": "address",
          "name": "",
          "type": "address"
        }
      ],
      "stateMutability": "view",
      "type": "function"
    },
    {
      "inputs": [],
      "name": "buyTicket",
      "outputs": [],
      "stateMutability": "payable",
      "type": "function"
    },
    {
      "inputs": [],
      "name": "endRaffle",
      "outputs": [],
      "stateMutability": "nonpayable",
      "type": "function"
    },
    {
      "inputs": [],
      "name": "getParticipants",
      "outputs": [
        {
          "internalType": "address[]",
          "name": "",
          "type": "address[]"
        }
      ],
      "stateMutability": "view",
      "type": "function"
    },
    {
      "inputs": [],
      "name": "getPrizePool",
      "outputs": [
        {
          "internalType": "uint256",
          "name": "",
          "type": "uint256"
        }
      ],
      "stateMutability": "view",
      "type": "function"
    },
    {
      "inputs": [
        {
          "internalType": "uint256",
          "name": "",
          "type": "uint256"
        }
      ],
      "name": "participants",
      "outputs": [
        {
          "internalType": "address",
          "name": "",
          "type": "address"
        }
      ],
      "stateMutability": "view",
      "type": "function"
    },
    {
      "inputs": [],
      "name": "prizePool",
      "outputs": [
        {
          "internalType": "uint256",
          "name": "",
          "type": "uint256"
        }
      ],
      "stateMutability": "view",
      "type": "function"
    },
    {
      "inputs": [],
      "name": "raffleEnd",
      "outputs": [
        {
          "internalType": "uint256",
          "name": "",
          "type": "uint256"
        }
      ],
      "stateMutability": "view",
      "type": "function"
    },
    {
      "inputs": [
        {
          "internalType": "uint256",
          "name": "_price",
          "type": "uint256"
        }
      ],
      "name": "setTicketPrice",
      "outputs": [],
      "stateMutability": "nonpayable",
      "type": "function"
    },
    {
      "inputs": [
        {
          "internalType": "uint256",
          "name": "duration",
          "type": "uint256"
        }
      ],
      "name": "startRaffle",
      "outputs": [],
      "stateMutability": "nonpayable",
      "type": "function"
    },
    {
      "inputs": [],
      "name": "ticketPrice",
      "outputs": [
        {
          "internalType": "uint256",
          "name": "",
          "type": "uint256"
        }
      ],
      "stateMutability": "view",
      "type": "function"
    }
  ],
  "bytecode": "0x608060405234801561001057600080fd5b50336000806101000a81548173ffffffffffffffffffffffffffffffffffffffff021916908373ffffffffffffffffffffffffffffffffffffffff160217905550610fbd806100606000396000f3fe60806040526004361061009c5760003560e01c8063884bf67c11610064578063884bf67c14610188578063a558d893146101b3578063edca914c146101de578063ee095c0e146101e8578063f1ae8c55146101ff578063f851a440146102285761009c565b80631209b1f6146100a157806315981650146100cc57806335c1d349146100f55780635aa68ac014610132578063719ce73e1461015d575b600080fd5b3480156100ad57600080fd5b506100b6610253565b6040516100c39190610d4e565b60405180910390f35b3480156100d857600080fd5b506100f360048036038101906100ee9190610903565b610259565b005b34801561010157600080fd5b5061011c60048036038101906101179190610903565b6102f1565b6040516101299190610c51565b60405180910390f35b34801561013e57600080fd5b50610147610330565b6040516101549190610c6c565b60405180910390f35b34801561016957600080fd5b506101726103be565b60405161017f9190610d4e565b60405180910390f35b34801561019457600080fd5b5061019d6103c4565b6040516101aa9190610d4e565b60405180910390f35b3480156101bf57600080fd5b506101c86103ce565b6040516101d59190610d4e565b60405180910390f35b6101e66103d4565b005b3480156101f457600080fd5b506101fd61051d565b005b34801561020b57600080fd5b5061022660048036038101906102219190610903565b610797565b005b34801561023457600080fd5b5061023d61088c565b60405161024a9190610c51565b60405180910390f35b60025481565b60008054906101000a900473ffffffffffffffffffffffffffffffffffffffff1673ffffffffffffffffffffffffffffffffffffffff163373ffffffffffffffffffffffffffffffffffffffff16146102e7576040517f08c379a00000000000000000000000000000000000000000000000000000000081526004016102de90610cee565b60405180910390fd5b8060028190555050565b6001818154811061030157600080fd5b906000526020600020016000915054906101000a900473ffffffffffffffffffffffffffffffffffffffff1681565b606060018054806020026020016040519081016040528092919081815260200182805480156103b457602002820191906000526020600020905b8160009054906101000a900473ffffffffffffffffffffffffffffffffffffffff1673ffffffffffffffffffffffffffffffffffffffff168152602001906001019080831161036a575b5050505050905090565b60045481565b6000600454905090565b60035481565b6003544210610418576040517f08c379a000000000000000000000000000000000000000000000000000000000815260040161040f90610cae565b60405180910390fd5b600254341461045c576040517f08c379a000000000000000000000000000000000000000000000000000000000815260040161045390610cce565b60405180910390fd5b6001339080600181540180825580915050600190039060005260206000200160009091909190916101000a81548173ffffffffffffffffffffffffffffffffffffffff021916908373ffffffffffffffffffffffffffffffffffffffff16021790555034600460008282546104d19190610deb565b925050819055503373ffffffffffffffffffffffffffffffffffffffff167f23443ac3afaec974c2d4368824912f61a50fee541bcc94ec52414ba6a9b14aab60405160405180910390a2565b60008054906101000a900473ffffffffffffffffffffffffffffffffffffffff1673ffffffffffffffffffffffffffffffffffffffff163373ffffffffffffffffffffffffffffffffffffffff16146105ab576040517f08c379a00000000000000000000000000000000000000000000000000000000081526004016105a290610cee565b60405180910390fd5b6003544210156105f0576040517f08c379a00000000000000000000000000000000000000000000000000000000081526004016105e790610c8e565b60405180910390fd5b600060018054905011610638576040517f08c379a000000000000000000000000000000000000000000000000000000000815260040161062f90610d2e565b60405180910390fd5b60006001805490504442600160405160200161065693929190610c18565b6040516020818303038152906040528051906020012060001c6106799190610ec1565b90506000600182815481106106b7577f4e487b7100000000000000000000000000000000000000000000000000000000600052603260045260246000fd5b9060005260206000200160009054906101000a900473ffffffffffffffffffffffffffffffffffffffff1690508073ffffffffffffffffffffffffffffffffffffffff166108fc6004549081150290604051600060405180830381858888f1935050505015801561072c573d6000803e3d6000fd5b508073ffffffffffffffffffffffffffffffffffffffff167f75060f9e79552df167b73353fee6237a75bb5ba8ea022f77224e32f152138bcb6004546040516107759190610d4e565b60405180910390a260006004819055506001600061079391906108b0565b5050565b60008054906101000a900473ffffffffffffffffffffffffffffffffffffffff1673ffffffffffffffffffffffffffffffffffffffff163373ffffffffffffffffffffffffffffffffffffffff1614610825576040517f08c379a000000000000000000000000000000000000000000000000000000000815260040161081c90610cee565b60405180910390fd5b6000600354148061083857506003544210155b610877576040517f08c379a000000000000000000000000000000000000000000000000000000000815260040161086e90610d0e565b60405180910390fd5b80426108839190610deb565b60038190555050565b60008054906101000a900473ffffffffffffffffffffffffffffffffffffffff1681565b50805460008255906000526020600020908101906108ce91906108d1565b50565b5b808211156108ea5760008160009055506001016108d2565b5090565b6000813590506108fd81610f70565b92915050565b60006020828403121561091557600080fd5b6000610923848285016108ee565b91505092915050565b6000610938838361095c565b60208301905092915050565b6000610950838361097a565b60208301905092915050565b61096581610e61565b82525050565b61097481610e61565b82525050565b61098381610e61565b82525050565b600061099482610d8e565b61099e8185610dbe565b93506109a983610d69565b8060005b838110156109da5781516109c1888261092c565b97506109cc83610da4565b9250506001810190506109ad565b5085935050505092915050565b60006109f282610d99565b6109fc8185610dcf565b9350610a0783610d79565b8060005b83811015610a3f57610a1c82610f50565b610a268882610944565b9750610a3183610db1565b925050600181019050610a0b565b5085935050505092915050565b6000610a59601883610dda565b91507f526166666c6520686173206e6f7420656e6465642079657400000000000000006000830152602082019050919050565b6000610a99601083610dda565b91507f526166666c652068617320656e646564000000000000000000000000000000006000830152602082019050919050565b6000610ad9601683610dda565b91507f496e636f7272656374207469636b6574207072696365000000000000000000006000830152602082019050919050565b6000610b19602283610dda565b91507f4f6e6c792061646d696e2063616e20706572666f726d2074686973206163746960008301527f6f6e0000000000000000000000000000000000000000000000000000000000006020830152604082019050919050565b6000610b7f601983610dda565b91507f526166666c6520697320616c7265616479206f6e676f696e67000000000000006000830152602082019050919050565b6000610bbf601d83610dda565b91507f4e6f207061727469636970616e747320696e2074686520726166666c650000006000830152602082019050919050565b610bfb81610e93565b82525050565b610c12610c0d82610e93565b610eb7565b82525050565b6000610c248286610c01565b602082019150610c348285610c01565b602082019150610c4482846109e7565b9150819050949350505050565b6000602082019050610c66600083018461096b565b92915050565b60006020820190508181036000830152610c868184610989565b905092915050565b60006020820190508181036000830152610ca781610a4c565b9050919050565b60006020820190508181036000830152610cc781610a8c565b9050919050565b60006020820190508181036000830152610ce781610acc565b9050919050565b60006020820190508181036000830152610d0781610b0c565b9050919050565b60006020820190508181036000830152610d2781610b72565b9050919050565b60006020820190508181036000830152610d4781610bb2565b9050919050565b6000602082019050610d636000830184610bf2565b92915050565b6000819050602082019050919050565b60008190508160005260206000209050919050565b600081519050919050565b600081549050919050565b6000602082019050919050565b6000600182019050919050565b600082825260208201905092915050565b600081905092915050565b600082825260208201905092915050565b6000610df682610e93565b9150610e0183610e93565b9250827fffffffffffffffffffffffffffffffffffffffffffffffffffffffffffffffff03821115610e3657610e35610ef2565b5b828201905092915050565b600073ffffffffffffffffffffffffffffffffffffffff82169050919050565b6000610e6c82610e73565b9050919050565b600073ffffffffffffffffffffffffffffffffffffffff82169050919050565b6000819050919050565b6000610eb0610eab83610f63565b610e41565b9050919050565b6000819050919050565b6000610ecc82610e93565b9150610ed783610e93565b925082610ee757610ee6610f21565b5b828206905092915050565b7f4e487b7100000000000000000000000000000000000000000000000000000000600052601160045260246000fd5b7f4e487b7100000000000000000000000000000000000000000000000000000000600052601260045260246000fd5b6000610f5c8254610e9d565b9050919050565b60008160001c9050919050565b610f7981610e93565b8114610f8457600080fd5b5056fea264697066735822122023cc2b2a4cfe563f9b80f44fdc4844b619a2fdaa82ab8f2c01fb535975120c9664736f6c63430008000033",
  "linkReferences": {},
  "deployedLinkReferences": {}
}